{
	"contracts/NobleVoting.sol": {
		"NobleVoting": {
			"abi": [
				{
					"inputs": [
						{
							"internalType": "address",
							"name": "",
							"type": "address"
						}
					],
					"name": "currentChoice",
					"outputs": [
						{
							"internalType": "uint256",
							"name": "",
							"type": "uint256"
						}
					],
					"stateMutability": "view",
					"type": "function"
				},
				{
					"inputs": [],
					"name": "getAllVotes",
					"outputs": [
						{
							"internalType": "uint256[3]",
							"name": "",
							"type": "uint256[3]"
						}
					],
					"stateMutability": "view",
					"type": "function"
				},
				{
					"inputs": [
						{
							"internalType": "uint256",
							"name": "_numberOfChoice",
							"type": "uint256"
						}
					],
					"name": "getVotesForNumber",
					"outputs": [
						{
							"internalType": "uint256",
							"name": "",
							"type": "uint256"
						}
					],
					"stateMutability": "view",
					"type": "function"
				},
				{
					"inputs": [
						{
							"internalType": "address",
							"name": "",
							"type": "address"
						}
					],
					"name": "hasVoted",
					"outputs": [
						{
							"internalType": "bool",
							"name": "",
							"type": "bool"
						}
					],
					"stateMutability": "view",
					"type": "function"
				},
				{
					"inputs": [
						{
							"internalType": "uint256",
							"name": "_userChoice",
							"type": "uint256"
						}
					],
					"name": "vote",
					"outputs": [],
					"stateMutability": "nonpayable",
					"type": "function"
				},
				{
					"inputs": [
						{
							"internalType": "uint256",
							"name": "",
							"type": "uint256"
						}
					],
					"name": "votes",
					"outputs": [
						{
							"internalType": "uint256",
							"name": "",
							"type": "uint256"
						}
					],
					"stateMutability": "view",
					"type": "function"
				}
			],
			"devdoc": {
				"kind": "dev",
				"methods": {},
				"version": 1
			},
			"evm": {
				"assembly": "    /* \"contracts/NobleVoting.sol\":58:1537  contract NobleVoting {... */\n  mstore(0x40, 0x80)\n  callvalue\n  dup1\n  iszero\n  tag_1\n  jumpi\n  0x00\n  dup1\n  revert\ntag_1:\n  pop\n  dataSize(sub_0)\n  dup1\n  dataOffset(sub_0)\n  0x00\n  codecopy\n  0x00\n  return\nstop\n\nsub_0: assembly {\n        /* \"contracts/NobleVoting.sol\":58:1537  contract NobleVoting {... */\n      mstore(0x40, 0x80)\n      callvalue\n      dup1\n      iszero\n      tag_1\n      jumpi\n      0x00\n      dup1\n      revert\n    tag_1:\n      pop\n      jumpi(tag_2, lt(calldatasize, 0x04))\n      shr(0xe0, calldataload(0x00))\n      dup1\n      0x0121b93f\n      eq\n      tag_3\n      jumpi\n      dup1\n      0x09eef43e\n      eq\n      tag_4\n      jumpi\n      dup1\n      0x44251759\n      eq\n      tag_5\n      jumpi\n      dup1\n      0x5df81330\n      eq\n      tag_6\n      jumpi\n      dup1\n      0x851b6ef2\n      eq\n      tag_7\n      jumpi\n      dup1\n      0xab004933\n      eq\n      tag_8\n      jumpi\n    tag_2:\n      0x00\n      dup1\n      revert\n        /* \"contracts/NobleVoting.sol\":358:1089  function vote(uint256 _userChoice) public {... */\n    tag_3:\n      tag_9\n      0x04\n      dup1\n      calldatasize\n      sub\n      dup2\n      add\n      swap1\n      tag_10\n      swap2\n      swap1\n      tag_11\n      jump\t// in\n    tag_10:\n      tag_12\n      jump\t// in\n    tag_9:\n      stop\n        /* \"contracts/NobleVoting.sol\":256:296  mapping(address => bool) public hasVoted */\n    tag_4:\n      tag_13\n      0x04\n      dup1\n      calldatasize\n      sub\n      dup2\n      add\n      swap1\n      tag_14\n      swap2\n      swap1\n      tag_15\n      jump\t// in\n    tag_14:\n      tag_16\n      jump\t// in\n    tag_13:\n      mload(0x40)\n      tag_17\n      swap2\n      swap1\n      tag_18\n      jump\t// in\n    tag_17:\n      mload(0x40)\n      dup1\n      swap2\n      sub\n      swap1\n      return\n        /* \"contracts/NobleVoting.sol\":303:351  mapping(address => uint256) public currentChoice */\n    tag_5:\n      tag_19\n      0x04\n      dup1\n      calldatasize\n      sub\n      dup2\n      add\n      swap1\n      tag_20\n      swap2\n      swap1\n      tag_15\n      jump\t// in\n    tag_20:\n      tag_21\n      jump\t// in\n    tag_19:\n      mload(0x40)\n      tag_22\n      swap2\n      swap1\n      tag_23\n      jump\t// in\n    tag_22:\n      mload(0x40)\n      dup1\n      swap2\n      sub\n      swap1\n      return\n        /* \"contracts/NobleVoting.sol\":157:180  uint256[3] public votes */\n    tag_6:\n      tag_24\n      0x04\n      dup1\n      calldatasize\n      sub\n      dup2\n      add\n      swap1\n      tag_25\n      swap2\n      swap1\n      tag_11\n      jump\t// in\n    tag_25:\n      tag_26\n      jump\t// in\n    tag_24:\n      mload(0x40)\n      tag_27\n      swap2\n      swap1\n      tag_23\n      jump\t// in\n    tag_27:\n      mload(0x40)\n      dup1\n      swap2\n      sub\n      swap1\n      return\n        /* \"contracts/NobleVoting.sol\":1443:1535  function getAllVotes() public view returns (uint256[3] memory) {... */\n    tag_7:\n      tag_28\n      tag_29\n      jump\t// in\n    tag_28:\n      mload(0x40)\n      tag_30\n      swap2\n      swap1\n      tag_31\n      jump\t// in\n    tag_30:\n      mload(0x40)\n      dup1\n      swap2\n      sub\n      swap1\n      return\n        /* \"contracts/NobleVoting.sol\":1095:1437  function getVotesForNumber(uint256 _numberOfChoice) public view returns (uint256) {... */\n    tag_8:\n      tag_32\n      0x04\n      dup1\n      calldatasize\n      sub\n      dup2\n      add\n      swap1\n      tag_33\n      swap2\n      swap1\n      tag_11\n      jump\t// in\n    tag_33:\n      tag_34\n      jump\t// in\n    tag_32:\n      mload(0x40)\n      tag_35\n      swap2\n      swap1\n      tag_23\n      jump\t// in\n    tag_35:\n      mload(0x40)\n      dup1\n      swap2\n      sub\n      swap1\n      return\n        /* \"contracts/NobleVoting.sol\":358:1089  function vote(uint256 _userChoice) public {... */\n    tag_12:\n        /* \"contracts/NobleVoting.sol\":484:485  3 */\n      0x03\n        /* \"contracts/NobleVoting.sol\":470:481  _userChoice */\n      dup2\n        /* \"contracts/NobleVoting.sol\":470:485  _userChoice < 3 */\n      lt\n        /* \"contracts/NobleVoting.sol\":462:533  require(_userChoice < 3, \"Invalid choice. Please vote for 0, 1, or 2.\") */\n      tag_37\n      jumpi\n      mload(0x40)\n      0x08c379a000000000000000000000000000000000000000000000000000000000\n      dup2\n      mstore\n      0x04\n      add\n      tag_38\n      swap1\n      tag_39\n      jump\t// in\n    tag_38:\n      mload(0x40)\n      dup1\n      swap2\n      sub\n      swap1\n      revert\n    tag_37:\n        /* \"contracts/NobleVoting.sol\":591:599  hasVoted */\n      0x03\n        /* \"contracts/NobleVoting.sol\":591:611  hasVoted[msg.sender] */\n      0x00\n        /* \"contracts/NobleVoting.sol\":600:610  msg.sender */\n      caller\n        /* \"contracts/NobleVoting.sol\":591:611  hasVoted[msg.sender] */\n      0xffffffffffffffffffffffffffffffffffffffff\n      and\n      0xffffffffffffffffffffffffffffffffffffffff\n      and\n      dup2\n      mstore\n      0x20\n      add\n      swap1\n      dup2\n      mstore\n      0x20\n      add\n      0x00\n      keccak256\n      0x00\n      swap1\n      sload\n      swap1\n      0x0100\n      exp\n      swap1\n      div\n      0xff\n      and\n        /* \"contracts/NobleVoting.sol\":587:878  if (hasVoted[msg.sender]){... */\n      iszero\n      tag_40\n      jumpi\n        /* \"contracts/NobleVoting.sol\":681:703  uint256 previousChoice */\n      0x00\n        /* \"contracts/NobleVoting.sol\":706:719  currentChoice */\n      0x04\n        /* \"contracts/NobleVoting.sol\":706:731  currentChoice[msg.sender] */\n      0x00\n        /* \"contracts/NobleVoting.sol\":720:730  msg.sender */\n      caller\n        /* \"contracts/NobleVoting.sol\":706:731  currentChoice[msg.sender] */\n      0xffffffffffffffffffffffffffffffffffffffff\n      and\n      0xffffffffffffffffffffffffffffffffffffffff\n      and\n      dup2\n      mstore\n      0x20\n      add\n      swap1\n      dup2\n      mstore\n      0x20\n      add\n      0x00\n      keccak256\n      sload\n        /* \"contracts/NobleVoting.sol\":681:731  uint256 previousChoice = currentChoice[msg.sender] */\n      swap1\n      pop\n        /* \"contracts/NobleVoting.sol\":745:750  votes */\n      0x00\n        /* \"contracts/NobleVoting.sol\":751:765  previousChoice */\n      dup2\n        /* \"contracts/NobleVoting.sol\":745:766  votes[previousChoice] */\n      0x03\n      dup2\n      lt\n      tag_41\n      jumpi\n      tag_42\n      tag_43\n      jump\t// in\n    tag_42:\n    tag_41:\n      add\n      0x00\n        /* \"contracts/NobleVoting.sol\":745:768  votes[previousChoice]-- */\n      dup2\n      sload\n      dup1\n      swap3\n      swap2\n      swap1\n      tag_45\n      swap1\n      tag_46\n      jump\t// in\n    tag_45:\n      swap2\n      swap1\n      pop\n      sstore\n      pop\n        /* \"contracts/NobleVoting.sol\":612:779  {... */\n      pop\n        /* \"contracts/NobleVoting.sol\":587:878  if (hasVoted[msg.sender]){... */\n      jump(tag_47)\n    tag_40:\n        /* \"contracts/NobleVoting.sol\":863:867  true */\n      0x01\n        /* \"contracts/NobleVoting.sol\":840:848  hasVoted */\n      0x03\n        /* \"contracts/NobleVoting.sol\":840:860  hasVoted[msg.sender] */\n      0x00\n        /* \"contracts/NobleVoting.sol\":849:859  msg.sender */\n      caller\n        /* \"contracts/NobleVoting.sol\":840:860  hasVoted[msg.sender] */\n      0xffffffffffffffffffffffffffffffffffffffff\n      and\n      0xffffffffffffffffffffffffffffffffffffffff\n      and\n      dup2\n      mstore\n      0x20\n      add\n      swap1\n      dup2\n      mstore\n      0x20\n      add\n      0x00\n      keccak256\n      0x00\n        /* \"contracts/NobleVoting.sol\":840:867  hasVoted[msg.sender] = true */\n      0x0100\n      exp\n      dup2\n      sload\n      dup2\n      0xff\n      mul\n      not\n      and\n      swap1\n      dup4\n      iszero\n      iszero\n      mul\n      or\n      swap1\n      sstore\n      pop\n        /* \"contracts/NobleVoting.sol\":587:878  if (hasVoted[msg.sender]){... */\n    tag_47:\n        /* \"contracts/NobleVoting.sol\":963:974  _userChoice */\n      dup1\n        /* \"contracts/NobleVoting.sol\":935:948  currentChoice */\n      0x04\n        /* \"contracts/NobleVoting.sol\":935:960  currentChoice[msg.sender] */\n      0x00\n        /* \"contracts/NobleVoting.sol\":949:959  msg.sender */\n      caller\n        /* \"contracts/NobleVoting.sol\":935:960  currentChoice[msg.sender] */\n      0xffffffffffffffffffffffffffffffffffffffff\n      and\n      0xffffffffffffffffffffffffffffffffffffffff\n      and\n      dup2\n      mstore\n      0x20\n      add\n      swap1\n      dup2\n      mstore\n      0x20\n      add\n      0x00\n      keccak256\n        /* \"contracts/NobleVoting.sol\":935:974  currentChoice[msg.sender] = _userChoice */\n      dup2\n      swap1\n      sstore\n      pop\n        /* \"contracts/NobleVoting.sol\":1062:1067  votes */\n      0x00\n        /* \"contracts/NobleVoting.sol\":1068:1079  _userChoice */\n      dup2\n        /* \"contracts/NobleVoting.sol\":1062:1080  votes[_userChoice] */\n      0x03\n      dup2\n      lt\n      tag_48\n      jumpi\n      tag_49\n      tag_43\n      jump\t// in\n    tag_49:\n    tag_48:\n      add\n      0x00\n        /* \"contracts/NobleVoting.sol\":1062:1082  votes[_userChoice]++ */\n      dup2\n      sload\n      dup1\n      swap3\n      swap2\n      swap1\n      tag_51\n      swap1\n      tag_52\n      jump\t// in\n    tag_51:\n      swap2\n      swap1\n      pop\n      sstore\n      pop\n        /* \"contracts/NobleVoting.sol\":358:1089  function vote(uint256 _userChoice) public {... */\n      pop\n      jump\t// out\n        /* \"contracts/NobleVoting.sol\":256:296  mapping(address => bool) public hasVoted */\n    tag_16:\n      mstore(0x20, 0x03)\n      dup1\n      0x00\n      mstore\n      keccak256(0x00, 0x40)\n      0x00\n      swap2\n      pop\n      sload\n      swap1\n      0x0100\n      exp\n      swap1\n      div\n      0xff\n      and\n      dup2\n      jump\t// out\n        /* \"contracts/NobleVoting.sol\":303:351  mapping(address => uint256) public currentChoice */\n    tag_21:\n      mstore(0x20, 0x04)\n      dup1\n      0x00\n      mstore\n      keccak256(0x00, 0x40)\n      0x00\n      swap2\n      pop\n      swap1\n      pop\n      sload\n      dup2\n      jump\t// out\n        /* \"contracts/NobleVoting.sol\":157:180  uint256[3] public votes */\n    tag_26:\n      0x00\n      dup2\n      0x03\n      dup2\n      lt\n      tag_53\n      jumpi\n      0x00\n      dup1\n      revert\n    tag_53:\n      add\n      0x00\n      swap2\n      pop\n      swap1\n      pop\n      sload\n      dup2\n      jump\t// out\n        /* \"contracts/NobleVoting.sol\":1443:1535  function getAllVotes() public view returns (uint256[3] memory) {... */\n    tag_29:\n        /* \"contracts/NobleVoting.sol\":1487:1504  uint256[3] memory */\n      tag_55\n      tag_56\n      jump\t// in\n    tag_55:\n        /* \"contracts/NobleVoting.sol\":1523:1528  votes */\n      0x00\n        /* \"contracts/NobleVoting.sol\":1516:1528  return votes */\n      0x03\n      dup1\n      0x20\n      mul\n      mload(0x40)\n      swap1\n      dup2\n      add\n      0x40\n      mstore\n      dup1\n      swap3\n      swap2\n      swap1\n      dup3\n      0x03\n      dup1\n      iszero\n      tag_58\n      jumpi\n      0x20\n      mul\n      dup3\n      add\n      swap2\n    tag_59:\n      dup2\n      sload\n      dup2\n      mstore\n      0x20\n      add\n      swap1\n      0x01\n      add\n      swap1\n      dup1\n      dup4\n      gt\n      tag_59\n      jumpi\n    tag_58:\n      pop\n      pop\n      pop\n      pop\n      pop\n      swap1\n      pop\n        /* \"contracts/NobleVoting.sol\":1443:1535  function getAllVotes() public view returns (uint256[3] memory) {... */\n      swap1\n      jump\t// out\n        /* \"contracts/NobleVoting.sol\":1095:1437  function getVotesForNumber(uint256 _numberOfChoice) public view returns (uint256) {... */\n    tag_34:\n        /* \"contracts/NobleVoting.sol\":1168:1175  uint256 */\n      0x00\n        /* \"contracts/NobleVoting.sol\":1320:1321  3 */\n      0x03\n        /* \"contracts/NobleVoting.sol\":1302:1317  _numberOfChoice */\n      dup3\n        /* \"contracts/NobleVoting.sol\":1302:1321  _numberOfChoice < 3 */\n      lt\n        /* \"contracts/NobleVoting.sol\":1294:1391  require(_numberOfChoice < 3, \"It seems like this is not a choice, please search for 0, 1, or 2.\") */\n      tag_61\n      jumpi\n      mload(0x40)\n      0x08c379a000000000000000000000000000000000000000000000000000000000\n      dup2\n      mstore\n      0x04\n      add\n      tag_62\n      swap1\n      tag_63\n      jump\t// in\n    tag_62:\n      mload(0x40)\n      dup1\n      swap2\n      sub\n      swap1\n      revert\n    tag_61:\n        /* \"contracts/NobleVoting.sol\":1408:1413  votes */\n      0x00\n        /* \"contracts/NobleVoting.sol\":1414:1429  _numberOfChoice */\n      dup3\n        /* \"contracts/NobleVoting.sol\":1408:1430  votes[_numberOfChoice] */\n      0x03\n      dup2\n      lt\n      tag_64\n      jumpi\n      tag_65\n      tag_43\n      jump\t// in\n    tag_65:\n    tag_64:\n      add\n      sload\n        /* \"contracts/NobleVoting.sol\":1401:1430  return votes[_numberOfChoice] */\n      swap1\n      pop\n        /* \"contracts/NobleVoting.sol\":1095:1437  function getVotesForNumber(uint256 _numberOfChoice) public view returns (uint256) {... */\n      swap2\n      swap1\n      pop\n      jump\t// out\n    tag_56:\n      mload(0x40)\n      dup1\n      0x60\n      add\n      0x40\n      mstore\n      dup1\n      0x03\n      swap1\n      0x20\n      dup3\n      mul\n      dup1\n      calldatasize\n      dup4\n      calldatacopy\n      dup1\n      dup3\n      add\n      swap2\n      pop\n      pop\n      swap1\n      pop\n      pop\n      swap1\n      jump\t// out\n        /* \"#utility.yul\":88:205   */\n    tag_68:\n        /* \"#utility.yul\":197:198   */\n      0x00\n        /* \"#utility.yul\":194:195   */\n      dup1\n        /* \"#utility.yul\":187:199   */\n      revert\n        /* \"#utility.yul\":334:411   */\n    tag_70:\n        /* \"#utility.yul\":371:378   */\n      0x00\n        /* \"#utility.yul\":400:405   */\n      dup2\n        /* \"#utility.yul\":389:405   */\n      swap1\n      pop\n        /* \"#utility.yul\":334:411   */\n      swap2\n      swap1\n      pop\n      jump\t// out\n        /* \"#utility.yul\":417:539   */\n    tag_71:\n        /* \"#utility.yul\":490:514   */\n      tag_99\n        /* \"#utility.yul\":508:513   */\n      dup2\n        /* \"#utility.yul\":490:514   */\n      tag_70\n      jump\t// in\n    tag_99:\n        /* \"#utility.yul\":483:488   */\n      dup2\n        /* \"#utility.yul\":480:515   */\n      eq\n        /* \"#utility.yul\":470:533   */\n      tag_100\n      jumpi\n        /* \"#utility.yul\":529:530   */\n      0x00\n        /* \"#utility.yul\":526:527   */\n      dup1\n        /* \"#utility.yul\":519:531   */\n      revert\n        /* \"#utility.yul\":470:533   */\n    tag_100:\n        /* \"#utility.yul\":417:539   */\n      pop\n      jump\t// out\n        /* \"#utility.yul\":545:684   */\n    tag_72:\n        /* \"#utility.yul\":591:596   */\n      0x00\n        /* \"#utility.yul\":629:635   */\n      dup2\n        /* \"#utility.yul\":616:636   */\n      calldataload\n        /* \"#utility.yul\":607:636   */\n      swap1\n      pop\n        /* \"#utility.yul\":645:678   */\n      tag_102\n        /* \"#utility.yul\":672:677   */\n      dup2\n        /* \"#utility.yul\":645:678   */\n      tag_71\n      jump\t// in\n    tag_102:\n        /* \"#utility.yul\":545:684   */\n      swap3\n      swap2\n      pop\n      pop\n      jump\t// out\n        /* \"#utility.yul\":690:1019   */\n    tag_11:\n        /* \"#utility.yul\":749:755   */\n      0x00\n        /* \"#utility.yul\":798:800   */\n      0x20\n        /* \"#utility.yul\":786:795   */\n      dup3\n        /* \"#utility.yul\":777:784   */\n      dup5\n        /* \"#utility.yul\":773:796   */\n      sub\n        /* \"#utility.yul\":769:801   */\n      slt\n        /* \"#utility.yul\":766:885   */\n      iszero\n      tag_104\n      jumpi\n        /* \"#utility.yul\":804:883   */\n      tag_105\n      tag_68\n      jump\t// in\n    tag_105:\n        /* \"#utility.yul\":766:885   */\n    tag_104:\n        /* \"#utility.yul\":924:925   */\n      0x00\n        /* \"#utility.yul\":949:1002   */\n      tag_106\n        /* \"#utility.yul\":994:1001   */\n      dup5\n        /* \"#utility.yul\":985:991   */\n      dup3\n        /* \"#utility.yul\":974:983   */\n      dup6\n        /* \"#utility.yul\":970:992   */\n      add\n        /* \"#utility.yul\":949:1002   */\n      tag_72\n      jump\t// in\n    tag_106:\n        /* \"#utility.yul\":939:1002   */\n      swap2\n      pop\n        /* \"#utility.yul\":895:1012   */\n      pop\n        /* \"#utility.yul\":690:1019   */\n      swap3\n      swap2\n      pop\n      pop\n      jump\t// out\n        /* \"#utility.yul\":1025:1151   */\n    tag_73:\n        /* \"#utility.yul\":1062:1069   */\n      0x00\n        /* \"#utility.yul\":1102:1144   */\n      0xffffffffffffffffffffffffffffffffffffffff\n        /* \"#utility.yul\":1095:1100   */\n      dup3\n        /* \"#utility.yul\":1091:1145   */\n      and\n        /* \"#utility.yul\":1080:1145   */\n      swap1\n      pop\n        /* \"#utility.yul\":1025:1151   */\n      swap2\n      swap1\n      pop\n      jump\t// out\n        /* \"#utility.yul\":1157:1253   */\n    tag_74:\n        /* \"#utility.yul\":1194:1201   */\n      0x00\n        /* \"#utility.yul\":1223:1247   */\n      tag_109\n        /* \"#utility.yul\":1241:1246   */\n      dup3\n        /* \"#utility.yul\":1223:1247   */\n      tag_73\n      jump\t// in\n    tag_109:\n        /* \"#utility.yul\":1212:1247   */\n      swap1\n      pop\n        /* \"#utility.yul\":1157:1253   */\n      swap2\n      swap1\n      pop\n      jump\t// out\n        /* \"#utility.yul\":1259:1381   */\n    tag_75:\n        /* \"#utility.yul\":1332:1356   */\n      tag_111\n        /* \"#utility.yul\":1350:1355   */\n      dup2\n        /* \"#utility.yul\":1332:1356   */\n      tag_74\n      jump\t// in\n    tag_111:\n        /* \"#utility.yul\":1325:1330   */\n      dup2\n        /* \"#utility.yul\":1322:1357   */\n      eq\n        /* \"#utility.yul\":1312:1375   */\n      tag_112\n      jumpi\n        /* \"#utility.yul\":1371:1372   */\n      0x00\n        /* \"#utility.yul\":1368:1369   */\n      dup1\n        /* \"#utility.yul\":1361:1373   */\n      revert\n        /* \"#utility.yul\":1312:1375   */\n    tag_112:\n        /* \"#utility.yul\":1259:1381   */\n      pop\n      jump\t// out\n        /* \"#utility.yul\":1387:1526   */\n    tag_76:\n        /* \"#utility.yul\":1433:1438   */\n      0x00\n        /* \"#utility.yul\":1471:1477   */\n      dup2\n        /* \"#utility.yul\":1458:1478   */\n      calldataload\n        /* \"#utility.yul\":1449:1478   */\n      swap1\n      pop\n        /* \"#utility.yul\":1487:1520   */\n      tag_114\n        /* \"#utility.yul\":1514:1519   */\n      dup2\n        /* \"#utility.yul\":1487:1520   */\n      tag_75\n      jump\t// in\n    tag_114:\n        /* \"#utility.yul\":1387:1526   */\n      swap3\n      swap2\n      pop\n      pop\n      jump\t// out\n        /* \"#utility.yul\":1532:1861   */\n    tag_15:\n        /* \"#utility.yul\":1591:1597   */\n      0x00\n        /* \"#utility.yul\":1640:1642   */\n      0x20\n        /* \"#utility.yul\":1628:1637   */\n      dup3\n        /* \"#utility.yul\":1619:1626   */\n      dup5\n        /* \"#utility.yul\":1615:1638   */\n      sub\n        /* \"#utility.yul\":1611:1643   */\n      slt\n        /* \"#utility.yul\":1608:1727   */\n      iszero\n      tag_116\n      jumpi\n        /* \"#utility.yul\":1646:1725   */\n      tag_117\n      tag_68\n      jump\t// in\n    tag_117:\n        /* \"#utility.yul\":1608:1727   */\n    tag_116:\n        /* \"#utility.yul\":1766:1767   */\n      0x00\n        /* \"#utility.yul\":1791:1844   */\n      tag_118\n        /* \"#utility.yul\":1836:1843   */\n      dup5\n        /* \"#utility.yul\":1827:1833   */\n      dup3\n        /* \"#utility.yul\":1816:1825   */\n      dup6\n        /* \"#utility.yul\":1812:1834   */\n      add\n        /* \"#utility.yul\":1791:1844   */\n      tag_76\n      jump\t// in\n    tag_118:\n        /* \"#utility.yul\":1781:1844   */\n      swap2\n      pop\n        /* \"#utility.yul\":1737:1854   */\n      pop\n        /* \"#utility.yul\":1532:1861   */\n      swap3\n      swap2\n      pop\n      pop\n      jump\t// out\n        /* \"#utility.yul\":1867:1957   */\n    tag_77:\n        /* \"#utility.yul\":1901:1908   */\n      0x00\n        /* \"#utility.yul\":1944:1949   */\n      dup2\n        /* \"#utility.yul\":1937:1950   */\n      iszero\n        /* \"#utility.yul\":1930:1951   */\n      iszero\n        /* \"#utility.yul\":1919:1951   */\n      swap1\n      pop\n        /* \"#utility.yul\":1867:1957   */\n      swap2\n      swap1\n      pop\n      jump\t// out\n        /* \"#utility.yul\":1963:2072   */\n    tag_78:\n        /* \"#utility.yul\":2044:2065   */\n      tag_121\n        /* \"#utility.yul\":2059:2064   */\n      dup2\n        /* \"#utility.yul\":2044:2065   */\n      tag_77\n      jump\t// in\n    tag_121:\n        /* \"#utility.yul\":2039:2042   */\n      dup3\n        /* \"#utility.yul\":2032:2066   */\n      mstore\n        /* \"#utility.yul\":1963:2072   */\n      pop\n      pop\n      jump\t// out\n        /* \"#utility.yul\":2078:2288   */\n    tag_18:\n        /* \"#utility.yul\":2165:2169   */\n      0x00\n        /* \"#utility.yul\":2203:2205   */\n      0x20\n        /* \"#utility.yul\":2192:2201   */\n      dup3\n        /* \"#utility.yul\":2188:2206   */\n      add\n        /* \"#utility.yul\":2180:2206   */\n      swap1\n      pop\n        /* \"#utility.yul\":2216:2281   */\n      tag_123\n        /* \"#utility.yul\":2278:2279   */\n      0x00\n        /* \"#utility.yul\":2267:2276   */\n      dup4\n        /* \"#utility.yul\":2263:2280   */\n      add\n        /* \"#utility.yul\":2254:2260   */\n      dup5\n        /* \"#utility.yul\":2216:2281   */\n      tag_78\n      jump\t// in\n    tag_123:\n        /* \"#utility.yul\":2078:2288   */\n      swap3\n      swap2\n      pop\n      pop\n      jump\t// out\n        /* \"#utility.yul\":2294:2412   */\n    tag_79:\n        /* \"#utility.yul\":2381:2405   */\n      tag_125\n        /* \"#utility.yul\":2399:2404   */\n      dup2\n        /* \"#utility.yul\":2381:2405   */\n      tag_70\n      jump\t// in\n    tag_125:\n        /* \"#utility.yul\":2376:2379   */\n      dup3\n        /* \"#utility.yul\":2369:2406   */\n      mstore\n        /* \"#utility.yul\":2294:2412   */\n      pop\n      pop\n      jump\t// out\n        /* \"#utility.yul\":2418:2640   */\n    tag_23:\n        /* \"#utility.yul\":2511:2515   */\n      0x00\n        /* \"#utility.yul\":2549:2551   */\n      0x20\n        /* \"#utility.yul\":2538:2547   */\n      dup3\n        /* \"#utility.yul\":2534:2552   */\n      add\n        /* \"#utility.yul\":2526:2552   */\n      swap1\n      pop\n        /* \"#utility.yul\":2562:2633   */\n      tag_127\n        /* \"#utility.yul\":2630:2631   */\n      0x00\n        /* \"#utility.yul\":2619:2628   */\n      dup4\n        /* \"#utility.yul\":2615:2632   */\n      add\n        /* \"#utility.yul\":2606:2612   */\n      dup5\n        /* \"#utility.yul\":2562:2633   */\n      tag_79\n      jump\t// in\n    tag_127:\n        /* \"#utility.yul\":2418:2640   */\n      swap3\n      swap2\n      pop\n      pop\n      jump\t// out\n        /* \"#utility.yul\":2646:2750   */\n    tag_80:\n        /* \"#utility.yul\":2711:2717   */\n      0x00\n        /* \"#utility.yul\":2739:2743   */\n      0x03\n        /* \"#utility.yul\":2729:2743   */\n      swap1\n      pop\n        /* \"#utility.yul\":2646:2750   */\n      swap2\n      swap1\n      pop\n      jump\t// out\n        /* \"#utility.yul\":2756:2899   */\n    tag_81:\n        /* \"#utility.yul\":2853:2864   */\n      0x00\n        /* \"#utility.yul\":2890:2893   */\n      dup2\n        /* \"#utility.yul\":2875:2893   */\n      swap1\n      pop\n        /* \"#utility.yul\":2756:2899   */\n      swap3\n      swap2\n      pop\n      pop\n      jump\t// out\n        /* \"#utility.yul\":2905:3003   */\n    tag_82:\n        /* \"#utility.yul\":2970:2974   */\n      0x00\n        /* \"#utility.yul\":2993:2996   */\n      dup2\n        /* \"#utility.yul\":2985:2996   */\n      swap1\n      pop\n        /* \"#utility.yul\":2905:3003   */\n      swap2\n      swap1\n      pop\n      jump\t// out\n        /* \"#utility.yul\":3009:3117   */\n    tag_83:\n        /* \"#utility.yul\":3086:3110   */\n      tag_132\n        /* \"#utility.yul\":3104:3109   */\n      dup2\n        /* \"#utility.yul\":3086:3110   */\n      tag_70\n      jump\t// in\n    tag_132:\n        /* \"#utility.yul\":3081:3084   */\n      dup3\n        /* \"#utility.yul\":3074:3111   */\n      mstore\n        /* \"#utility.yul\":3009:3117   */\n      pop\n      pop\n      jump\t// out\n        /* \"#utility.yul\":3123:3302   */\n    tag_84:\n        /* \"#utility.yul\":3192:3202   */\n      0x00\n        /* \"#utility.yul\":3213:3259   */\n      tag_134\n        /* \"#utility.yul\":3255:3258   */\n      dup4\n        /* \"#utility.yul\":3247:3253   */\n      dup4\n        /* \"#utility.yul\":3213:3259   */\n      tag_83\n      jump\t// in\n    tag_134:\n        /* \"#utility.yul\":3291:3295   */\n      0x20\n        /* \"#utility.yul\":3286:3289   */\n      dup4\n        /* \"#utility.yul\":3282:3296   */\n      add\n        /* \"#utility.yul\":3268:3296   */\n      swap1\n      pop\n        /* \"#utility.yul\":3123:3302   */\n      swap3\n      swap2\n      pop\n      pop\n      jump\t// out\n        /* \"#utility.yul\":3308:3419   */\n    tag_85:\n        /* \"#utility.yul\":3376:3380   */\n      0x00\n        /* \"#utility.yul\":3408:3412   */\n      0x20\n        /* \"#utility.yul\":3403:3406   */\n      dup3\n        /* \"#utility.yul\":3399:3413   */\n      add\n        /* \"#utility.yul\":3391:3413   */\n      swap1\n      pop\n        /* \"#utility.yul\":3308:3419   */\n      swap2\n      swap1\n      pop\n      jump\t// out\n        /* \"#utility.yul\":3457:4151   */\n    tag_86:\n        /* \"#utility.yul\":3593:3645   */\n      tag_137\n        /* \"#utility.yul\":3639:3644   */\n      dup2\n        /* \"#utility.yul\":3593:3645   */\n      tag_80\n      jump\t// in\n    tag_137:\n        /* \"#utility.yul\":3661:3745   */\n      tag_138\n        /* \"#utility.yul\":3738:3744   */\n      dup2\n        /* \"#utility.yul\":3733:3736   */\n      dup5\n        /* \"#utility.yul\":3661:3745   */\n      tag_81\n      jump\t// in\n    tag_138:\n        /* \"#utility.yul\":3654:3745   */\n      swap3\n      pop\n        /* \"#utility.yul\":3769:3823   */\n      tag_139\n        /* \"#utility.yul\":3817:3822   */\n      dup3\n        /* \"#utility.yul\":3769:3823   */\n      tag_82\n      jump\t// in\n    tag_139:\n        /* \"#utility.yul\":3846:3853   */\n      dup1\n        /* \"#utility.yul\":3877:3878   */\n      0x00\n        /* \"#utility.yul\":3862:4144   */\n    tag_140:\n        /* \"#utility.yul\":3887:3893   */\n      dup4\n        /* \"#utility.yul\":3884:3885   */\n      dup2\n        /* \"#utility.yul\":3881:3894   */\n      lt\n        /* \"#utility.yul\":3862:4144   */\n      iszero\n      tag_142\n      jumpi\n        /* \"#utility.yul\":3963:3969   */\n      dup2\n        /* \"#utility.yul\":3957:3970   */\n      mload\n        /* \"#utility.yul\":3990:4053   */\n      tag_143\n        /* \"#utility.yul\":4049:4052   */\n      dup8\n        /* \"#utility.yul\":4034:4047   */\n      dup3\n        /* \"#utility.yul\":3990:4053   */\n      tag_84\n      jump\t// in\n    tag_143:\n        /* \"#utility.yul\":3983:4053   */\n      swap7\n      pop\n        /* \"#utility.yul\":4076:4134   */\n      tag_144\n        /* \"#utility.yul\":4127:4133   */\n      dup4\n        /* \"#utility.yul\":4076:4134   */\n      tag_85\n      jump\t// in\n    tag_144:\n        /* \"#utility.yul\":4066:4134   */\n      swap3\n      pop\n        /* \"#utility.yul\":3922:4144   */\n      pop\n        /* \"#utility.yul\":3909:3910   */\n      0x01\n        /* \"#utility.yul\":3906:3907   */\n      dup2\n        /* \"#utility.yul\":3902:3911   */\n      add\n        /* \"#utility.yul\":3897:3911   */\n      swap1\n      pop\n        /* \"#utility.yul\":3862:4144   */\n      jump(tag_140)\n    tag_142:\n        /* \"#utility.yul\":3866:3880   */\n      pop\n        /* \"#utility.yul\":3569:4151   */\n      pop\n      pop\n      pop\n        /* \"#utility.yul\":3457:4151   */\n      pop\n      pop\n      jump\t// out\n        /* \"#utility.yul\":4157:4471   */\n    tag_31:\n        /* \"#utility.yul\":4296:4300   */\n      0x00\n        /* \"#utility.yul\":4334:4336   */\n      0x60\n        /* \"#utility.yul\":4323:4332   */\n      dup3\n        /* \"#utility.yul\":4319:4337   */\n      add\n        /* \"#utility.yul\":4311:4337   */\n      swap1\n      pop\n        /* \"#utility.yul\":4347:4464   */\n      tag_146\n        /* \"#utility.yul\":4461:4462   */\n      0x00\n        /* \"#utility.yul\":4450:4459   */\n      dup4\n        /* \"#utility.yul\":4446:4463   */\n      add\n        /* \"#utility.yul\":4437:4443   */\n      dup5\n        /* \"#utility.yul\":4347:4464   */\n      tag_86\n      jump\t// in\n    tag_146:\n        /* \"#utility.yul\":4157:4471   */\n      swap3\n      swap2\n      pop\n      pop\n      jump\t// out\n        /* \"#utility.yul\":4477:4646   */\n    tag_87:\n        /* \"#utility.yul\":4561:4572   */\n      0x00\n        /* \"#utility.yul\":4595:4601   */\n      dup3\n        /* \"#utility.yul\":4590:4593   */\n      dup3\n        /* \"#utility.yul\":4583:4602   */\n      mstore\n        /* \"#utility.yul\":4635:4639   */\n      0x20\n        /* \"#utility.yul\":4630:4633   */\n      dup3\n        /* \"#utility.yul\":4626:4640   */\n      add\n        /* \"#utility.yul\":4611:4640   */\n      swap1\n      pop\n        /* \"#utility.yul\":4477:4646   */\n      swap3\n      swap2\n      pop\n      pop\n      jump\t// out\n        /* \"#utility.yul\":4652:4882   */\n    tag_88:\n        /* \"#utility.yul\":4792:4826   */\n      0x496e76616c69642063686f6963652e20506c6561736520766f746520666f7220\n        /* \"#utility.yul\":4788:4789   */\n      0x00\n        /* \"#utility.yul\":4780:4786   */\n      dup3\n        /* \"#utility.yul\":4776:4790   */\n      add\n        /* \"#utility.yul\":4769:4827   */\n      mstore\n        /* \"#utility.yul\":4861:4874   */\n      0x302c20312c206f7220322e000000000000000000000000000000000000000000\n        /* \"#utility.yul\":4856:4858   */\n      0x20\n        /* \"#utility.yul\":4848:4854   */\n      dup3\n        /* \"#utility.yul\":4844:4859   */\n      add\n        /* \"#utility.yul\":4837:4875   */\n      mstore\n        /* \"#utility.yul\":4652:4882   */\n      pop\n      jump\t// out\n        /* \"#utility.yul\":4888:5254   */\n    tag_89:\n        /* \"#utility.yul\":5030:5033   */\n      0x00\n        /* \"#utility.yul\":5051:5118   */\n      tag_150\n        /* \"#utility.yul\":5115:5117   */\n      0x2b\n        /* \"#utility.yul\":5110:5113   */\n      dup4\n        /* \"#utility.yul\":5051:5118   */\n      tag_87\n      jump\t// in\n    tag_150:\n        /* \"#utility.yul\":5044:5118   */\n      swap2\n      pop\n        /* \"#utility.yul\":5127:5220   */\n      tag_151\n        /* \"#utility.yul\":5216:5219   */\n      dup3\n        /* \"#utility.yul\":5127:5220   */\n      tag_88\n      jump\t// in\n    tag_151:\n        /* \"#utility.yul\":5245:5247   */\n      0x40\n        /* \"#utility.yul\":5240:5243   */\n      dup3\n        /* \"#utility.yul\":5236:5248   */\n      add\n        /* \"#utility.yul\":5229:5248   */\n      swap1\n      pop\n        /* \"#utility.yul\":4888:5254   */\n      swap2\n      swap1\n      pop\n      jump\t// out\n        /* \"#utility.yul\":5260:5679   */\n    tag_39:\n        /* \"#utility.yul\":5426:5430   */\n      0x00\n        /* \"#utility.yul\":5464:5466   */\n      0x20\n        /* \"#utility.yul\":5453:5462   */\n      dup3\n        /* \"#utility.yul\":5449:5467   */\n      add\n        /* \"#utility.yul\":5441:5467   */\n      swap1\n      pop\n        /* \"#utility.yul\":5513:5522   */\n      dup2\n        /* \"#utility.yul\":5507:5511   */\n      dup2\n        /* \"#utility.yul\":5503:5523   */\n      sub\n        /* \"#utility.yul\":5499:5500   */\n      0x00\n        /* \"#utility.yul\":5488:5497   */\n      dup4\n        /* \"#utility.yul\":5484:5501   */\n      add\n        /* \"#utility.yul\":5477:5524   */\n      mstore\n        /* \"#utility.yul\":5541:5672   */\n      tag_153\n        /* \"#utility.yul\":5667:5671   */\n      dup2\n        /* \"#utility.yul\":5541:5672   */\n      tag_89\n      jump\t// in\n    tag_153:\n        /* \"#utility.yul\":5533:5672   */\n      swap1\n      pop\n        /* \"#utility.yul\":5260:5679   */\n      swap2\n      swap1\n      pop\n      jump\t// out\n        /* \"#utility.yul\":5685:5865   */\n    tag_43:\n        /* \"#utility.yul\":5733:5810   */\n      0x4e487b7100000000000000000000000000000000000000000000000000000000\n        /* \"#utility.yul\":5730:5731   */\n      0x00\n        /* \"#utility.yul\":5723:5811   */\n      mstore\n        /* \"#utility.yul\":5830:5834   */\n      0x32\n        /* \"#utility.yul\":5827:5828   */\n      0x04\n        /* \"#utility.yul\":5820:5835   */\n      mstore\n        /* \"#utility.yul\":5854:5858   */\n      0x24\n        /* \"#utility.yul\":5851:5852   */\n      0x00\n        /* \"#utility.yul\":5844:5859   */\n      revert\n        /* \"#utility.yul\":5871:6051   */\n    tag_90:\n        /* \"#utility.yul\":5919:5996   */\n      0x4e487b7100000000000000000000000000000000000000000000000000000000\n        /* \"#utility.yul\":5916:5917   */\n      0x00\n        /* \"#utility.yul\":5909:5997   */\n      mstore\n        /* \"#utility.yul\":6016:6020   */\n      0x11\n        /* \"#utility.yul\":6013:6014   */\n      0x04\n        /* \"#utility.yul\":6006:6021   */\n      mstore\n        /* \"#utility.yul\":6040:6044   */\n      0x24\n        /* \"#utility.yul\":6037:6038   */\n      0x00\n        /* \"#utility.yul\":6030:6045   */\n      revert\n        /* \"#utility.yul\":6057:6228   */\n    tag_46:\n        /* \"#utility.yul\":6096:6099   */\n      0x00\n        /* \"#utility.yul\":6119:6143   */\n      tag_157\n        /* \"#utility.yul\":6137:6142   */\n      dup3\n        /* \"#utility.yul\":6119:6143   */\n      tag_70\n      jump\t// in\n    tag_157:\n        /* \"#utility.yul\":6110:6143   */\n      swap2\n      pop\n        /* \"#utility.yul\":6165:6169   */\n      0x00\n        /* \"#utility.yul\":6158:6163   */\n      dup3\n        /* \"#utility.yul\":6155:6170   */\n      sub\n        /* \"#utility.yul\":6152:6193   */\n      tag_158\n      jumpi\n        /* \"#utility.yul\":6173:6191   */\n      tag_159\n      tag_90\n      jump\t// in\n    tag_159:\n        /* \"#utility.yul\":6152:6193   */\n    tag_158:\n        /* \"#utility.yul\":6220:6221   */\n      0x01\n        /* \"#utility.yul\":6213:6218   */\n      dup3\n        /* \"#utility.yul\":6209:6222   */\n      sub\n        /* \"#utility.yul\":6202:6222   */\n      swap1\n      pop\n        /* \"#utility.yul\":6057:6228   */\n      swap2\n      swap1\n      pop\n      jump\t// out\n        /* \"#utility.yul\":6234:6467   */\n    tag_52:\n        /* \"#utility.yul\":6273:6276   */\n      0x00\n        /* \"#utility.yul\":6296:6320   */\n      tag_161\n        /* \"#utility.yul\":6314:6319   */\n      dup3\n        /* \"#utility.yul\":6296:6320   */\n      tag_70\n      jump\t// in\n    tag_161:\n        /* \"#utility.yul\":6287:6320   */\n      swap2\n      pop\n        /* \"#utility.yul\":6342:6408   */\n      0xffffffffffffffffffffffffffffffffffffffffffffffffffffffffffffffff\n        /* \"#utility.yul\":6335:6340   */\n      dup3\n        /* \"#utility.yul\":6332:6409   */\n      sub\n        /* \"#utility.yul\":6329:6432   */\n      tag_162\n      jumpi\n        /* \"#utility.yul\":6412:6430   */\n      tag_163\n      tag_90\n      jump\t// in\n    tag_163:\n        /* \"#utility.yul\":6329:6432   */\n    tag_162:\n        /* \"#utility.yul\":6459:6460   */\n      0x01\n        /* \"#utility.yul\":6452:6457   */\n      dup3\n        /* \"#utility.yul\":6448:6461   */\n      add\n        /* \"#utility.yul\":6441:6461   */\n      swap1\n      pop\n        /* \"#utility.yul\":6234:6467   */\n      swap2\n      swap1\n      pop\n      jump\t// out\n        /* \"#utility.yul\":6473:6762   */\n    tag_91:\n        /* \"#utility.yul\":6613:6647   */\n      0x4974207365656d73206c696b652074686973206973206e6f7420612063686f69\n        /* \"#utility.yul\":6609:6610   */\n      0x00\n        /* \"#utility.yul\":6601:6607   */\n      dup3\n        /* \"#utility.yul\":6597:6611   */\n      add\n        /* \"#utility.yul\":6590:6648   */\n      mstore\n        /* \"#utility.yul\":6682:6716   */\n      0x63652c20706c656173652073656172636820666f7220302c20312c206f722032\n        /* \"#utility.yul\":6677:6679   */\n      0x20\n        /* \"#utility.yul\":6669:6675   */\n      dup3\n        /* \"#utility.yul\":6665:6680   */\n      add\n        /* \"#utility.yul\":6658:6717   */\n      mstore\n        /* \"#utility.yul\":6751:6754   */\n      0x2e00000000000000000000000000000000000000000000000000000000000000\n        /* \"#utility.yul\":6746:6748   */\n      0x40\n        /* \"#utility.yul\":6738:6744   */\n      dup3\n        /* \"#utility.yul\":6734:6749   */\n      add\n        /* \"#utility.yul\":6727:6755   */\n      mstore\n        /* \"#utility.yul\":6473:6762   */\n      pop\n      jump\t// out\n        /* \"#utility.yul\":6768:7134   */\n    tag_92:\n        /* \"#utility.yul\":6910:6913   */\n      0x00\n        /* \"#utility.yul\":6931:6998   */\n      tag_166\n        /* \"#utility.yul\":6995:6997   */\n      0x41\n        /* \"#utility.yul\":6990:6993   */\n      dup4\n        /* \"#utility.yul\":6931:6998   */\n      tag_87\n      jump\t// in\n    tag_166:\n        /* \"#utility.yul\":6924:6998   */\n      swap2\n      pop\n        /* \"#utility.yul\":7007:7100   */\n      tag_167\n        /* \"#utility.yul\":7096:7099   */\n      dup3\n        /* \"#utility.yul\":7007:7100   */\n      tag_91\n      jump\t// in\n    tag_167:\n        /* \"#utility.yul\":7125:7127   */\n      0x60\n        /* \"#utility.yul\":7120:7123   */\n      dup3\n        /* \"#utility.yul\":7116:7128   */\n      add\n        /* \"#utility.yul\":7109:7128   */\n      swap1\n      pop\n        /* \"#utility.yul\":6768:7134   */\n      swap2\n      swap1\n      pop\n      jump\t// out\n        /* \"#utility.yul\":7140:7559   */\n    tag_63:\n        /* \"#utility.yul\":7306:7310   */\n      0x00\n        /* \"#utility.yul\":7344:7346   */\n      0x20\n        /* \"#utility.yul\":7333:7342   */\n      dup3\n        /* \"#utility.yul\":7329:7347   */\n      add\n        /* \"#utility.yul\":7321:7347   */\n      swap1\n      pop\n        /* \"#utility.yul\":7393:7402   */\n      dup2\n        /* \"#utility.yul\":7387:7391   */\n      dup2\n        /* \"#utility.yul\":7383:7403   */\n      sub\n        /* \"#utility.yul\":7379:7380   */\n      0x00\n        /* \"#utility.yul\":7368:7377   */\n      dup4\n        /* \"#utility.yul\":7364:7381   */\n      add\n        /* \"#utility.yul\":7357:7404   */\n      mstore\n        /* \"#utility.yul\":7421:7552   */\n      tag_169\n        /* \"#utility.yul\":7547:7551   */\n      dup2\n        /* \"#utility.yul\":7421:7552   */\n      tag_92\n      jump\t// in\n    tag_169:\n        /* \"#utility.yul\":7413:7552   */\n      swap1\n      pop\n        /* \"#utility.yul\":7140:7559   */\n      swap2\n      swap1\n      pop\n      jump\t// out\n\n    auxdata: 0xa26469706673582212208db1a159a2bbb965bdc28f513cb99ff080fa90d75601ab73fb6bd768c571d6f764736f6c634300081a0033\n}\n",
				"bytecode": {
					"linkReferences": {},
					"object": "6080604052348015600e575f80fd5b5061088a8061001c5f395ff3fe608060405234801561000f575f80fd5b5060043610610060575f3560e01c80630121b93f1461006457806309eef43e1461008057806344251759146100b05780635df81330146100e0578063851b6ef214610110578063ab0049331461012e575b5f80fd5b61007e60048036038101906100799190610471565b61015e565b005b61009a600480360381019061009591906104f6565b610324565b6040516100a7919061053b565b60405180910390f35b6100ca60048036038101906100c591906104f6565b610341565b6040516100d79190610563565b60405180910390f35b6100fa60048036038101906100f59190610471565b610356565b6040516101079190610563565b60405180910390f35b61011861036e565b6040516101259190610621565b60405180910390f35b61014860048036038101906101439190610471565b6103b8565b6040516101559190610563565b60405180910390f35b600381106101a1576040517f08c379a0000000000000000000000000000000000000000000000000000000008152600401610198906106ba565b60405180910390fd5b60035f3373ffffffffffffffffffffffffffffffffffffffff1673ffffffffffffffffffffffffffffffffffffffff1681526020019081526020015f205f9054906101000a900460ff1615610260575f60045f3373ffffffffffffffffffffffffffffffffffffffff1673ffffffffffffffffffffffffffffffffffffffff1681526020019081526020015f205490505f8160038110610244576102436106d8565b5b015f81548092919061025590610732565b9190505550506102b6565b600160035f3373ffffffffffffffffffffffffffffffffffffffff1673ffffffffffffffffffffffffffffffffffffffff1681526020019081526020015f205f6101000a81548160ff0219169083151502179055505b8060045f3373ffffffffffffffffffffffffffffffffffffffff1673ffffffffffffffffffffffffffffffffffffffff1681526020019081526020015f20819055505f816003811061030b5761030a6106d8565b5b015f81548092919061031c90610759565b919050555050565b6003602052805f5260405f205f915054906101000a900460ff1681565b6004602052805f5260405f205f915090505481565b5f8160038110610364575f80fd5b015f915090505481565b610376610418565b5f6003806020026040519081016040528092919082600380156103ae576020028201915b81548152602001906001019080831161039a575b5050505050905090565b5f600382106103fc576040517f08c379a00000000000000000000000000000000000000000000000000000000081526004016103f390610836565b60405180910390fd5b5f826003811061040f5761040e6106d8565b5b01549050919050565b6040518060600160405280600390602082028036833780820191505090505090565b5f80fd5b5f819050919050565b6104508161043e565b811461045a575f80fd5b50565b5f8135905061046b81610447565b92915050565b5f602082840312156104865761048561043a565b5b5f6104938482850161045d565b91505092915050565b5f73ffffffffffffffffffffffffffffffffffffffff82169050919050565b5f6104c58261049c565b9050919050565b6104d5816104bb565b81146104df575f80fd5b50565b5f813590506104f0816104cc565b92915050565b5f6020828403121561050b5761050a61043a565b5b5f610518848285016104e2565b91505092915050565b5f8115159050919050565b61053581610521565b82525050565b5f60208201905061054e5f83018461052c565b92915050565b61055d8161043e565b82525050565b5f6020820190506105765f830184610554565b92915050565b5f60039050919050565b5f81905092915050565b5f819050919050565b6105a28161043e565b82525050565b5f6105b38383610599565b60208301905092915050565b5f602082019050919050565b6105d48161057c565b6105de8184610586565b92506105e982610590565b805f5b8381101561061957815161060087826105a8565b965061060b836105bf565b9250506001810190506105ec565b505050505050565b5f6060820190506106345f8301846105cb565b92915050565b5f82825260208201905092915050565b7f496e76616c69642063686f6963652e20506c6561736520766f746520666f72205f8201527f302c20312c206f7220322e000000000000000000000000000000000000000000602082015250565b5f6106a4602b8361063a565b91506106af8261064a565b604082019050919050565b5f6020820190508181035f8301526106d181610698565b9050919050565b7f4e487b71000000000000000000000000000000000000000000000000000000005f52603260045260245ffd5b7f4e487b71000000000000000000000000000000000000000000000000000000005f52601160045260245ffd5b5f61073c8261043e565b91505f820361074e5761074d610705565b5b600182039050919050565b5f6107638261043e565b91507fffffffffffffffffffffffffffffffffffffffffffffffffffffffffffffffff820361079557610794610705565b5b600182019050919050565b7f4974207365656d73206c696b652074686973206973206e6f7420612063686f695f8201527f63652c20706c656173652073656172636820666f7220302c20312c206f72203260208201527f2e00000000000000000000000000000000000000000000000000000000000000604082015250565b5f61082060418361063a565b915061082b826107a0565b606082019050919050565b5f6020820190508181035f83015261084d81610814565b905091905056fea26469706673582212208db1a159a2bbb965bdc28f513cb99ff080fa90d75601ab73fb6bd768c571d6f764736f6c634300081a0033",
					"opcodes": "PUSH1 0x80 PUSH1 0x40 MSTORE CALLVALUE DUP1 ISZERO PUSH1 0xE JUMPI PUSH0 DUP1 REVERT JUMPDEST POP PUSH2 0x88A DUP1 PUSH2 0x1C PUSH0 CODECOPY PUSH0 RETURN INVALID PUSH1 0x80 PUSH1 0x40 MSTORE CALLVALUE DUP1 ISZERO PUSH2 0xF JUMPI PUSH0 DUP1 REVERT JUMPDEST POP PUSH1 0x4 CALLDATASIZE LT PUSH2 0x60 JUMPI PUSH0 CALLDATALOAD PUSH1 0xE0 SHR DUP1 PUSH4 0x121B93F EQ PUSH2 0x64 JUMPI DUP1 PUSH4 0x9EEF43E EQ PUSH2 0x80 JUMPI DUP1 PUSH4 0x44251759 EQ PUSH2 0xB0 JUMPI DUP1 PUSH4 0x5DF81330 EQ PUSH2 0xE0 JUMPI DUP1 PUSH4 0x851B6EF2 EQ PUSH2 0x110 JUMPI DUP1 PUSH4 0xAB004933 EQ PUSH2 0x12E JUMPI JUMPDEST PUSH0 DUP1 REVERT JUMPDEST PUSH2 0x7E PUSH1 0x4 DUP1 CALLDATASIZE SUB DUP2 ADD SWAP1 PUSH2 0x79 SWAP2 SWAP1 PUSH2 0x471 JUMP JUMPDEST PUSH2 0x15E JUMP JUMPDEST STOP JUMPDEST PUSH2 0x9A PUSH1 0x4 DUP1 CALLDATASIZE SUB DUP2 ADD SWAP1 PUSH2 0x95 SWAP2 SWAP1 PUSH2 0x4F6 JUMP JUMPDEST PUSH2 0x324 JUMP JUMPDEST PUSH1 0x40 MLOAD PUSH2 0xA7 SWAP2 SWAP1 PUSH2 0x53B JUMP JUMPDEST PUSH1 0x40 MLOAD DUP1 SWAP2 SUB SWAP1 RETURN JUMPDEST PUSH2 0xCA PUSH1 0x4 DUP1 CALLDATASIZE SUB DUP2 ADD SWAP1 PUSH2 0xC5 SWAP2 SWAP1 PUSH2 0x4F6 JUMP JUMPDEST PUSH2 0x341 JUMP JUMPDEST PUSH1 0x40 MLOAD PUSH2 0xD7 SWAP2 SWAP1 PUSH2 0x563 JUMP JUMPDEST PUSH1 0x40 MLOAD DUP1 SWAP2 SUB SWAP1 RETURN JUMPDEST PUSH2 0xFA PUSH1 0x4 DUP1 CALLDATASIZE SUB DUP2 ADD SWAP1 PUSH2 0xF5 SWAP2 SWAP1 PUSH2 0x471 JUMP JUMPDEST PUSH2 0x356 JUMP JUMPDEST PUSH1 0x40 MLOAD PUSH2 0x107 SWAP2 SWAP1 PUSH2 0x563 JUMP JUMPDEST PUSH1 0x40 MLOAD DUP1 SWAP2 SUB SWAP1 RETURN JUMPDEST PUSH2 0x118 PUSH2 0x36E JUMP JUMPDEST PUSH1 0x40 MLOAD PUSH2 0x125 SWAP2 SWAP1 PUSH2 0x621 JUMP JUMPDEST PUSH1 0x40 MLOAD DUP1 SWAP2 SUB SWAP1 RETURN JUMPDEST PUSH2 0x148 PUSH1 0x4 DUP1 CALLDATASIZE SUB DUP2 ADD SWAP1 PUSH2 0x143 SWAP2 SWAP1 PUSH2 0x471 JUMP JUMPDEST PUSH2 0x3B8 JUMP JUMPDEST PUSH1 0x40 MLOAD PUSH2 0x155 SWAP2 SWAP1 PUSH2 0x563 JUMP JUMPDEST PUSH1 0x40 MLOAD DUP1 SWAP2 SUB SWAP1 RETURN JUMPDEST PUSH1 0x3 DUP2 LT PUSH2 0x1A1 JUMPI PUSH1 0x40 MLOAD PUSH32 0x8C379A000000000000000000000000000000000000000000000000000000000 DUP2 MSTORE PUSH1 0x4 ADD PUSH2 0x198 SWAP1 PUSH2 0x6BA JUMP JUMPDEST PUSH1 0x40 MLOAD DUP1 SWAP2 SUB SWAP1 REVERT JUMPDEST PUSH1 0x3 PUSH0 CALLER PUSH20 0xFFFFFFFFFFFFFFFFFFFFFFFFFFFFFFFFFFFFFFFF AND PUSH20 0xFFFFFFFFFFFFFFFFFFFFFFFFFFFFFFFFFFFFFFFF AND DUP2 MSTORE PUSH1 0x20 ADD SWAP1 DUP2 MSTORE PUSH1 0x20 ADD PUSH0 KECCAK256 PUSH0 SWAP1 SLOAD SWAP1 PUSH2 0x100 EXP SWAP1 DIV PUSH1 0xFF AND ISZERO PUSH2 0x260 JUMPI PUSH0 PUSH1 0x4 PUSH0 CALLER PUSH20 0xFFFFFFFFFFFFFFFFFFFFFFFFFFFFFFFFFFFFFFFF AND PUSH20 0xFFFFFFFFFFFFFFFFFFFFFFFFFFFFFFFFFFFFFFFF AND DUP2 MSTORE PUSH1 0x20 ADD SWAP1 DUP2 MSTORE PUSH1 0x20 ADD PUSH0 KECCAK256 SLOAD SWAP1 POP PUSH0 DUP2 PUSH1 0x3 DUP2 LT PUSH2 0x244 JUMPI PUSH2 0x243 PUSH2 0x6D8 JUMP JUMPDEST JUMPDEST ADD PUSH0 DUP2 SLOAD DUP1 SWAP3 SWAP2 SWAP1 PUSH2 0x255 SWAP1 PUSH2 0x732 JUMP JUMPDEST SWAP2 SWAP1 POP SSTORE POP POP PUSH2 0x2B6 JUMP JUMPDEST PUSH1 0x1 PUSH1 0x3 PUSH0 CALLER PUSH20 0xFFFFFFFFFFFFFFFFFFFFFFFFFFFFFFFFFFFFFFFF AND PUSH20 0xFFFFFFFFFFFFFFFFFFFFFFFFFFFFFFFFFFFFFFFF AND DUP2 MSTORE PUSH1 0x20 ADD SWAP1 DUP2 MSTORE PUSH1 0x20 ADD PUSH0 KECCAK256 PUSH0 PUSH2 0x100 EXP DUP2 SLOAD DUP2 PUSH1 0xFF MUL NOT AND SWAP1 DUP4 ISZERO ISZERO MUL OR SWAP1 SSTORE POP JUMPDEST DUP1 PUSH1 0x4 PUSH0 CALLER PUSH20 0xFFFFFFFFFFFFFFFFFFFFFFFFFFFFFFFFFFFFFFFF AND PUSH20 0xFFFFFFFFFFFFFFFFFFFFFFFFFFFFFFFFFFFFFFFF AND DUP2 MSTORE PUSH1 0x20 ADD SWAP1 DUP2 MSTORE PUSH1 0x20 ADD PUSH0 KECCAK256 DUP2 SWAP1 SSTORE POP PUSH0 DUP2 PUSH1 0x3 DUP2 LT PUSH2 0x30B JUMPI PUSH2 0x30A PUSH2 0x6D8 JUMP JUMPDEST JUMPDEST ADD PUSH0 DUP2 SLOAD DUP1 SWAP3 SWAP2 SWAP1 PUSH2 0x31C SWAP1 PUSH2 0x759 JUMP JUMPDEST SWAP2 SWAP1 POP SSTORE POP POP JUMP JUMPDEST PUSH1 0x3 PUSH1 0x20 MSTORE DUP1 PUSH0 MSTORE PUSH1 0x40 PUSH0 KECCAK256 PUSH0 SWAP2 POP SLOAD SWAP1 PUSH2 0x100 EXP SWAP1 DIV PUSH1 0xFF AND DUP2 JUMP JUMPDEST PUSH1 0x4 PUSH1 0x20 MSTORE DUP1 PUSH0 MSTORE PUSH1 0x40 PUSH0 KECCAK256 PUSH0 SWAP2 POP SWAP1 POP SLOAD DUP2 JUMP JUMPDEST PUSH0 DUP2 PUSH1 0x3 DUP2 LT PUSH2 0x364 JUMPI PUSH0 DUP1 REVERT JUMPDEST ADD PUSH0 SWAP2 POP SWAP1 POP SLOAD DUP2 JUMP JUMPDEST PUSH2 0x376 PUSH2 0x418 JUMP JUMPDEST PUSH0 PUSH1 0x3 DUP1 PUSH1 0x20 MUL PUSH1 0x40 MLOAD SWAP1 DUP2 ADD PUSH1 0x40 MSTORE DUP1 SWAP3 SWAP2 SWAP1 DUP3 PUSH1 0x3 DUP1 ISZERO PUSH2 0x3AE JUMPI PUSH1 0x20 MUL DUP3 ADD SWAP2 JUMPDEST DUP2 SLOAD DUP2 MSTORE PUSH1 0x20 ADD SWAP1 PUSH1 0x1 ADD SWAP1 DUP1 DUP4 GT PUSH2 0x39A JUMPI JUMPDEST POP POP POP POP POP SWAP1 POP SWAP1 JUMP JUMPDEST PUSH0 PUSH1 0x3 DUP3 LT PUSH2 0x3FC JUMPI PUSH1 0x40 MLOAD PUSH32 0x8C379A000000000000000000000000000000000000000000000000000000000 DUP2 MSTORE PUSH1 0x4 ADD PUSH2 0x3F3 SWAP1 PUSH2 0x836 JUMP JUMPDEST PUSH1 0x40 MLOAD DUP1 SWAP2 SUB SWAP1 REVERT JUMPDEST PUSH0 DUP3 PUSH1 0x3 DUP2 LT PUSH2 0x40F JUMPI PUSH2 0x40E PUSH2 0x6D8 JUMP JUMPDEST JUMPDEST ADD SLOAD SWAP1 POP SWAP2 SWAP1 POP JUMP JUMPDEST PUSH1 0x40 MLOAD DUP1 PUSH1 0x60 ADD PUSH1 0x40 MSTORE DUP1 PUSH1 0x3 SWAP1 PUSH1 0x20 DUP3 MUL DUP1 CALLDATASIZE DUP4 CALLDATACOPY DUP1 DUP3 ADD SWAP2 POP POP SWAP1 POP POP SWAP1 JUMP JUMPDEST PUSH0 DUP1 REVERT JUMPDEST PUSH0 DUP2 SWAP1 POP SWAP2 SWAP1 POP JUMP JUMPDEST PUSH2 0x450 DUP2 PUSH2 0x43E JUMP JUMPDEST DUP2 EQ PUSH2 0x45A JUMPI PUSH0 DUP1 REVERT JUMPDEST POP JUMP JUMPDEST PUSH0 DUP2 CALLDATALOAD SWAP1 POP PUSH2 0x46B DUP2 PUSH2 0x447 JUMP JUMPDEST SWAP3 SWAP2 POP POP JUMP JUMPDEST PUSH0 PUSH1 0x20 DUP3 DUP5 SUB SLT ISZERO PUSH2 0x486 JUMPI PUSH2 0x485 PUSH2 0x43A JUMP JUMPDEST JUMPDEST PUSH0 PUSH2 0x493 DUP5 DUP3 DUP6 ADD PUSH2 0x45D JUMP JUMPDEST SWAP2 POP POP SWAP3 SWAP2 POP POP JUMP JUMPDEST PUSH0 PUSH20 0xFFFFFFFFFFFFFFFFFFFFFFFFFFFFFFFFFFFFFFFF DUP3 AND SWAP1 POP SWAP2 SWAP1 POP JUMP JUMPDEST PUSH0 PUSH2 0x4C5 DUP3 PUSH2 0x49C JUMP JUMPDEST SWAP1 POP SWAP2 SWAP1 POP JUMP JUMPDEST PUSH2 0x4D5 DUP2 PUSH2 0x4BB JUMP JUMPDEST DUP2 EQ PUSH2 0x4DF JUMPI PUSH0 DUP1 REVERT JUMPDEST POP JUMP JUMPDEST PUSH0 DUP2 CALLDATALOAD SWAP1 POP PUSH2 0x4F0 DUP2 PUSH2 0x4CC JUMP JUMPDEST SWAP3 SWAP2 POP POP JUMP JUMPDEST PUSH0 PUSH1 0x20 DUP3 DUP5 SUB SLT ISZERO PUSH2 0x50B JUMPI PUSH2 0x50A PUSH2 0x43A JUMP JUMPDEST JUMPDEST PUSH0 PUSH2 0x518 DUP5 DUP3 DUP6 ADD PUSH2 0x4E2 JUMP JUMPDEST SWAP2 POP POP SWAP3 SWAP2 POP POP JUMP JUMPDEST PUSH0 DUP2 ISZERO ISZERO SWAP1 POP SWAP2 SWAP1 POP JUMP JUMPDEST PUSH2 0x535 DUP2 PUSH2 0x521 JUMP JUMPDEST DUP3 MSTORE POP POP JUMP JUMPDEST PUSH0 PUSH1 0x20 DUP3 ADD SWAP1 POP PUSH2 0x54E PUSH0 DUP4 ADD DUP5 PUSH2 0x52C JUMP JUMPDEST SWAP3 SWAP2 POP POP JUMP JUMPDEST PUSH2 0x55D DUP2 PUSH2 0x43E JUMP JUMPDEST DUP3 MSTORE POP POP JUMP JUMPDEST PUSH0 PUSH1 0x20 DUP3 ADD SWAP1 POP PUSH2 0x576 PUSH0 DUP4 ADD DUP5 PUSH2 0x554 JUMP JUMPDEST SWAP3 SWAP2 POP POP JUMP JUMPDEST PUSH0 PUSH1 0x3 SWAP1 POP SWAP2 SWAP1 POP JUMP JUMPDEST PUSH0 DUP2 SWAP1 POP SWAP3 SWAP2 POP POP JUMP JUMPDEST PUSH0 DUP2 SWAP1 POP SWAP2 SWAP1 POP JUMP JUMPDEST PUSH2 0x5A2 DUP2 PUSH2 0x43E JUMP JUMPDEST DUP3 MSTORE POP POP JUMP JUMPDEST PUSH0 PUSH2 0x5B3 DUP4 DUP4 PUSH2 0x599 JUMP JUMPDEST PUSH1 0x20 DUP4 ADD SWAP1 POP SWAP3 SWAP2 POP POP JUMP JUMPDEST PUSH0 PUSH1 0x20 DUP3 ADD SWAP1 POP SWAP2 SWAP1 POP JUMP JUMPDEST PUSH2 0x5D4 DUP2 PUSH2 0x57C JUMP JUMPDEST PUSH2 0x5DE DUP2 DUP5 PUSH2 0x586 JUMP JUMPDEST SWAP3 POP PUSH2 0x5E9 DUP3 PUSH2 0x590 JUMP JUMPDEST DUP1 PUSH0 JUMPDEST DUP4 DUP2 LT ISZERO PUSH2 0x619 JUMPI DUP2 MLOAD PUSH2 0x600 DUP8 DUP3 PUSH2 0x5A8 JUMP JUMPDEST SWAP7 POP PUSH2 0x60B DUP4 PUSH2 0x5BF JUMP JUMPDEST SWAP3 POP POP PUSH1 0x1 DUP2 ADD SWAP1 POP PUSH2 0x5EC JUMP JUMPDEST POP POP POP POP POP POP JUMP JUMPDEST PUSH0 PUSH1 0x60 DUP3 ADD SWAP1 POP PUSH2 0x634 PUSH0 DUP4 ADD DUP5 PUSH2 0x5CB JUMP JUMPDEST SWAP3 SWAP2 POP POP JUMP JUMPDEST PUSH0 DUP3 DUP3 MSTORE PUSH1 0x20 DUP3 ADD SWAP1 POP SWAP3 SWAP2 POP POP JUMP JUMPDEST PUSH32 0x496E76616C69642063686F6963652E20506C6561736520766F746520666F7220 PUSH0 DUP3 ADD MSTORE PUSH32 0x302C20312C206F7220322E000000000000000000000000000000000000000000 PUSH1 0x20 DUP3 ADD MSTORE POP JUMP JUMPDEST PUSH0 PUSH2 0x6A4 PUSH1 0x2B DUP4 PUSH2 0x63A JUMP JUMPDEST SWAP2 POP PUSH2 0x6AF DUP3 PUSH2 0x64A JUMP JUMPDEST PUSH1 0x40 DUP3 ADD SWAP1 POP SWAP2 SWAP1 POP JUMP JUMPDEST PUSH0 PUSH1 0x20 DUP3 ADD SWAP1 POP DUP2 DUP2 SUB PUSH0 DUP4 ADD MSTORE PUSH2 0x6D1 DUP2 PUSH2 0x698 JUMP JUMPDEST SWAP1 POP SWAP2 SWAP1 POP JUMP JUMPDEST PUSH32 0x4E487B7100000000000000000000000000000000000000000000000000000000 PUSH0 MSTORE PUSH1 0x32 PUSH1 0x4 MSTORE PUSH1 0x24 PUSH0 REVERT JUMPDEST PUSH32 0x4E487B7100000000000000000000000000000000000000000000000000000000 PUSH0 MSTORE PUSH1 0x11 PUSH1 0x4 MSTORE PUSH1 0x24 PUSH0 REVERT JUMPDEST PUSH0 PUSH2 0x73C DUP3 PUSH2 0x43E JUMP JUMPDEST SWAP2 POP PUSH0 DUP3 SUB PUSH2 0x74E JUMPI PUSH2 0x74D PUSH2 0x705 JUMP JUMPDEST JUMPDEST PUSH1 0x1 DUP3 SUB SWAP1 POP SWAP2 SWAP1 POP JUMP JUMPDEST PUSH0 PUSH2 0x763 DUP3 PUSH2 0x43E JUMP JUMPDEST SWAP2 POP PUSH32 0xFFFFFFFFFFFFFFFFFFFFFFFFFFFFFFFFFFFFFFFFFFFFFFFFFFFFFFFFFFFFFFFF DUP3 SUB PUSH2 0x795 JUMPI PUSH2 0x794 PUSH2 0x705 JUMP JUMPDEST JUMPDEST PUSH1 0x1 DUP3 ADD SWAP1 POP SWAP2 SWAP1 POP JUMP JUMPDEST PUSH32 0x4974207365656D73206C696B652074686973206973206E6F7420612063686F69 PUSH0 DUP3 ADD MSTORE PUSH32 0x63652C20706C656173652073656172636820666F7220302C20312C206F722032 PUSH1 0x20 DUP3 ADD MSTORE PUSH32 0x2E00000000000000000000000000000000000000000000000000000000000000 PUSH1 0x40 DUP3 ADD MSTORE POP JUMP JUMPDEST PUSH0 PUSH2 0x820 PUSH1 0x41 DUP4 PUSH2 0x63A JUMP JUMPDEST SWAP2 POP PUSH2 0x82B DUP3 PUSH2 0x7A0 JUMP JUMPDEST PUSH1 0x60 DUP3 ADD SWAP1 POP SWAP2 SWAP1 POP JUMP JUMPDEST PUSH0 PUSH1 0x20 DUP3 ADD SWAP1 POP DUP2 DUP2 SUB PUSH0 DUP4 ADD MSTORE PUSH2 0x84D DUP2 PUSH2 0x814 JUMP JUMPDEST SWAP1 POP SWAP2 SWAP1 POP JUMP INVALID LOG2 PUSH5 0x6970667358 0x22 SLT KECCAK256 DUP14 0xB1 LOG1 MSIZE LOG2 0xBB 0xB9 PUSH6 0xBDC28F513CB9 SWAP16 CREATE DUP1 STATICCALL SWAP1 0xD7 JUMP ADD 0xAB PUSH20 0xFB6BD768C571D6F764736F6C634300081A003300 "
				},
				"gasEstimates": {
					"creation": {
						"codeDepositCost": "437200",
						"executionCost": "472",
						"totalCost": "437672"
					},
					"external": {
						"currentChoice(address)": "2824",
						"getAllVotes()": "infinite",
						"getVotesForNumber(uint256)": "infinite",
						"hasVoted(address)": "2833",
						"vote(uint256)": "infinite",
						"votes(uint256)": "infinite"
					}
				},
				"methodIdentifiers": {
					"currentChoice(address)": "44251759",
					"getAllVotes()": "851b6ef2",
					"getVotesForNumber(uint256)": "ab004933",
					"hasVoted(address)": "09eef43e",
					"vote(uint256)": "0121b93f",
					"votes(uint256)": "5df81330"
				}
			},
			"storageLayout": {
				"storage": [
					{
						"astId": 5,
						"contract": "contracts/NobleVoting.sol:NobleVoting",
						"label": "votes",
						"offset": 0,
						"slot": "0",
						"type": "t_array(t_uint256)3_storage"
					},
					{
						"astId": 9,
						"contract": "contracts/NobleVoting.sol:NobleVoting",
						"label": "hasVoted",
						"offset": 0,
						"slot": "3",
						"type": "t_mapping(t_address,t_bool)"
					},
					{
						"astId": 13,
						"contract": "contracts/NobleVoting.sol:NobleVoting",
						"label": "currentChoice",
						"offset": 0,
						"slot": "4",
						"type": "t_mapping(t_address,t_uint256)"
					}
				],
				"types": {
					"t_address": {
						"encoding": "inplace",
						"label": "address",
						"numberOfBytes": "20"
					},
					"t_array(t_uint256)3_storage": {
						"base": "t_uint256",
						"encoding": "inplace",
						"label": "uint256[3]",
						"numberOfBytes": "96"
					},
					"t_bool": {
						"encoding": "inplace",
						"label": "bool",
						"numberOfBytes": "1"
					},
					"t_mapping(t_address,t_bool)": {
						"encoding": "mapping",
						"key": "t_address",
						"label": "mapping(address => bool)",
						"numberOfBytes": "32",
						"value": "t_bool"
					},
					"t_mapping(t_address,t_uint256)": {
						"encoding": "mapping",
						"key": "t_address",
						"label": "mapping(address => uint256)",
						"numberOfBytes": "32",
						"value": "t_uint256"
					},
					"t_uint256": {
						"encoding": "inplace",
						"label": "uint256",
						"numberOfBytes": "32"
					}
				}
			},
			"userdoc": {
				"kind": "user",
				"methods": {},
				"version": 1
			}
		}
	}
}